{"abi":[{"type":"constructor","inputs":[],"stateMutability":"nonpayable"},{"type":"function","name":"bridgeViaLiFi","inputs":[{"name":"token","type":"address","internalType":"address"},{"name":"from","type":"address","internalType":"address"},{"name":"amount","type":"uint256","internalType":"uint256"},{"name":"lifiDiamond","type":"address","internalType":"address"},{"name":"lifiData","type":"bytes","internalType":"bytes"},{"name":"metadata","type":"bytes","internalType":"bytes"}],"outputs":[],"stateMutability":"nonpayable"},{"type":"function","name":"owner","inputs":[],"outputs":[{"name":"","type":"address","internalType":"address"}],"stateMutability":"view"},{"type":"function","name":"platformWallets","inputs":[{"name":"","type":"uint8","internalType":"uint8"}],"outputs":[{"name":"","type":"address","internalType":"address"}],"stateMutability":"view"},{"type":"function","name":"setOwner","inputs":[{"name":"newOwner","type":"address","internalType":"address"}],"outputs":[],"stateMutability":"nonpayable"},{"type":"function","name":"setPlatformWallet","inputs":[{"name":"platformId","type":"uint8","internalType":"uint8"},{"name":"wallet","type":"address","internalType":"address"}],"outputs":[],"stateMutability":"nonpayable"},{"type":"function","name":"transferERC1155","inputs":[{"name":"token","type":"address","internalType":"address"},{"name":"from","type":"address","internalType":"address"},{"name":"platformId","type":"uint8","internalType":"uint8"},{"name":"tokenId","type":"uint256","internalType":"uint256"},{"name":"amount","type":"uint256","internalType":"uint256"},{"name":"metadata","type":"bytes","internalType":"bytes"}],"outputs":[],"stateMutability":"nonpayable"},{"type":"function","name":"transferERC20","inputs":[{"name":"token","type":"address","internalType":"address"},{"name":"from","type":"address","internalType":"address"},{"name":"platformId","type":"uint8","internalType":"uint8"},{"name":"amount","type":"uint256","internalType":"uint256"},{"name":"metadata","type":"bytes","internalType":"bytes"}],"outputs":[],"stateMutability":"nonpayable"},{"type":"event","name":"OrderIntent","inputs":[{"name":"user","type":"address","indexed":true,"internalType":"address"},{"name":"platformId","type":"uint8","indexed":true,"internalType":"uint8"},{"name":"token","type":"address","indexed":false,"internalType":"address"},{"name":"amount","type":"uint256","indexed":false,"internalType":"uint256"},{"name":"metadata","type":"bytes","indexed":false,"internalType":"bytes"}],"anonymous":false}],"bytecode":{"object":"0x6080604052348015600e575f5ffd5b50335f5f6101000a81548173ffffffffffffffffffffffffffffffffffffffff021916908373ffffffffffffffffffffffffffffffffffffffff1602179055506115f08061005b5f395ff3fe608060405234801561000f575f5ffd5b506004361061007b575f3560e01c80636b0d2ea2116100595780636b0d2ea2146100d35780638da5cb5b146100ef578063ee6097f01461010d578063fa8c7762146101295761007b565b806313af40351461007f5780635d4ffa651461009b5780636767041c146100b7575b5f5ffd5b61009960048036038101906100949190610cc2565b610159565b005b6100b560048036038101906100b09190610db7565b610297565b005b6100d160048036038101906100cc9190610e4d565b61055b565b005b6100ed60048036038101906100e89190610e8b565b610642565b005b6100f7610a08565b6040516101049190610f64565b60405180910390f35b61012760048036038101906101229190610f7d565b610a2c565b005b610143600480360381019061013e9190611027565b610c30565b6040516101509190610f64565b60405180910390f35b5f5f9054906101000a900473ffffffffffffffffffffffffffffffffffffffff1673ffffffffffffffffffffffffffffffffffffffff163373ffffffffffffffffffffffffffffffffffffffff16146101e7576040517f08c379a00000000000000000000000000000000000000000000000000000000081526004016101de906110ac565b60405180910390fd5b5f73ffffffffffffffffffffffffffffffffffffffff168173ffffffffffffffffffffffffffffffffffffffff1603610255576040517f08c379a000000000000000000000000000000000000000000000000000000000815260040161024c90611114565b60405180910390fd5b805f5f6101000a81548173ffffffffffffffffffffffffffffffffffffffff021916908373ffffffffffffffffffffffffffffffffffffffff16021790555050565b5f5f9054906101000a900473ffffffffffffffffffffffffffffffffffffffff1673ffffffffffffffffffffffffffffffffffffffff163373ffffffffffffffffffffffffffffffffffffffff1614610325576040517f08c379a000000000000000000000000000000000000000000000000000000000815260040161031c906110ac565b60405180910390fd5b5f60015f8660ff1660ff1681526020019081526020015f205f9054906101000a900473ffffffffffffffffffffffffffffffffffffffff1690505f73ffffffffffffffffffffffffffffffffffffffff168173ffffffffffffffffffffffffffffffffffffffff16036103cd576040517f08c379a00000000000000000000000000000000000000000000000000000000081526004016103c49061117c565b60405180910390fd5b5f5f8873ffffffffffffffffffffffffffffffffffffffff166323b872dd898589604051602401610400939291906111a9565b6040516020818303038152906040529060e01b6020820180517bffffffffffffffffffffffffffffffffffffffffffffffffffffffff838183161783525050505060405161044e9190611230565b5f604051808303815f865af19150503d805f8114610487576040519150601f19603f3d011682016040523d82523d5f602084013e61048c565b606091505b50915091508180156104b957505f815114806104b85750808060200190518101906104b7919061127b565b5b5b6104f8576040517f08c379a00000000000000000000000000000000000000000000000000000000081526004016104ef906112f0565b60405180910390fd5b8660ff168873ffffffffffffffffffffffffffffffffffffffff167f1347300688116acfa8e0381e08a8c3f8cf24a6c2dffc6032e15cf3968cd73bad8b8989896040516105489493929190611368565b60405180910390a3505050505050505050565b5f5f9054906101000a900473ffffffffffffffffffffffffffffffffffffffff1673ffffffffffffffffffffffffffffffffffffffff163373ffffffffffffffffffffffffffffffffffffffff16146105e9576040517f08c379a00000000000000000000000000000000000000000000000000000000081526004016105e0906110ac565b60405180910390fd5b8060015f8460ff1660ff1681526020019081526020015f205f6101000a81548173ffffffffffffffffffffffffffffffffffffffff021916908373ffffffffffffffffffffffffffffffffffffffff1602179055505050565b5f5f9054906101000a900473ffffffffffffffffffffffffffffffffffffffff1673ffffffffffffffffffffffffffffffffffffffff163373ffffffffffffffffffffffffffffffffffffffff16146106d0576040517f08c379a00000000000000000000000000000000000000000000000000000000081526004016106c7906110ac565b60405180910390fd5b5f5f8973ffffffffffffffffffffffffffffffffffffffff166323b872dd8a308b604051602401610703939291906111a9565b6040516020818303038152906040529060e01b6020820180517bffffffffffffffffffffffffffffffffffffffffffffffffffffffff83818316178352505050506040516107519190611230565b5f604051808303815f865af19150503d805f811461078a576040519150601f19603f3d011682016040523d82523d5f602084013e61078f565b606091505b50915091508180156107bc57505f815114806107bb5750808060200190518101906107ba919061127b565b5b5b6107fb576040517f08c379a00000000000000000000000000000000000000000000000000000000081526004016107f2906113f0565b60405180910390fd5b5f8a73ffffffffffffffffffffffffffffffffffffffff1663095ea7b3898b60405160240161082b92919061140e565b6040516020818303038152906040529060e01b6020820180517bffffffffffffffffffffffffffffffffffffffffffffffffffffffff83818316178352505050506040516108799190611230565b5f604051808303815f865af19150503d805f81146108b2576040519150601f19603f3d011682016040523d82523d5f602084013e6108b7565b606091505b50509050806108fb576040517f08c379a00000000000000000000000000000000000000000000000000000000081526004016108f29061147f565b60405180910390fd5b5f8873ffffffffffffffffffffffffffffffffffffffff1688886040516109239291906114c1565b5f604051808303815f865af19150503d805f811461095c576040519150601f19603f3d011682016040523d82523d5f602084013e610961565b606091505b50509050806109a5576040517f08c379a000000000000000000000000000000000000000000000000000000000815260040161099c90611523565b60405180910390fd5b5f8b73ffffffffffffffffffffffffffffffffffffffff167f1347300688116acfa8e0381e08a8c3f8cf24a6c2dffc6032e15cf3968cd73bad8e8d8a8a6040516109f29493929190611368565b60405180910390a3505050505050505050505050565b5f5f9054906101000a900473ffffffffffffffffffffffffffffffffffffffff1681565b5f5f9054906101000a900473ffffffffffffffffffffffffffffffffffffffff1673ffffffffffffffffffffffffffffffffffffffff163373ffffffffffffffffffffffffffffffffffffffff1614610aba576040517f08c379a0000000000000000000000000000000000000000000000000000000008152600401610ab1906110ac565b60405180910390fd5b5f60015f8760ff1660ff1681526020019081526020015f205f9054906101000a900473ffffffffffffffffffffffffffffffffffffffff1690505f73ffffffffffffffffffffffffffffffffffffffff168173ffffffffffffffffffffffffffffffffffffffff1603610b62576040517f08c379a0000000000000000000000000000000000000000000000000000000008152600401610b599061117c565b60405180910390fd5b8773ffffffffffffffffffffffffffffffffffffffff1663f242432a888388886040518563ffffffff1660e01b8152600401610ba19493929190611564565b5f604051808303815f87803b158015610bb8575f5ffd5b505af1158015610bca573d5f5f3e3d5ffd5b505050508560ff168773ffffffffffffffffffffffffffffffffffffffff167f1347300688116acfa8e0381e08a8c3f8cf24a6c2dffc6032e15cf3968cd73bad8a878787604051610c1e9493929190611368565b60405180910390a35050505050505050565b6001602052805f5260405f205f915054906101000a900473ffffffffffffffffffffffffffffffffffffffff1681565b5f5ffd5b5f5ffd5b5f73ffffffffffffffffffffffffffffffffffffffff82169050919050565b5f610c9182610c68565b9050919050565b610ca181610c87565b8114610cab575f5ffd5b50565b5f81359050610cbc81610c98565b92915050565b5f60208284031215610cd757610cd6610c60565b5b5f610ce484828501610cae565b91505092915050565b5f60ff82169050919050565b610d0281610ced565b8114610d0c575f5ffd5b50565b5f81359050610d1d81610cf9565b92915050565b5f819050919050565b610d3581610d23565b8114610d3f575f5ffd5b50565b5f81359050610d5081610d2c565b92915050565b5f5ffd5b5f5ffd5b5f5ffd5b5f5f83601f840112610d7757610d76610d56565b5b8235905067ffffffffffffffff811115610d9457610d93610d5a565b5b602083019150836001820283011115610db057610daf610d5e565b5b9250929050565b5f5f5f5f5f5f60a08789031215610dd157610dd0610c60565b5b5f610dde89828a01610cae565b9650506020610def89828a01610cae565b9550506040610e0089828a01610d0f565b9450506060610e1189828a01610d42565b935050608087013567ffffffffffffffff811115610e3257610e31610c64565b5b610e3e89828a01610d62565b92509250509295509295509295565b5f5f60408385031215610e6357610e62610c60565b5b5f610e7085828601610d0f565b9250506020610e8185828601610cae565b9150509250929050565b5f5f5f5f5f5f5f5f60c0898b031215610ea757610ea6610c60565b5b5f610eb48b828c01610cae565b9850506020610ec58b828c01610cae565b9750506040610ed68b828c01610d42565b9650506060610ee78b828c01610cae565b955050608089013567ffffffffffffffff811115610f0857610f07610c64565b5b610f148b828c01610d62565b945094505060a089013567ffffffffffffffff811115610f3757610f36610c64565b5b610f438b828c01610d62565b92509250509295985092959890939650565b610f5e81610c87565b82525050565b5f602082019050610f775f830184610f55565b92915050565b5f5f5f5f5f5f5f60c0888a031215610f9857610f97610c60565b5b5f610fa58a828b01610cae565b9750506020610fb68a828b01610cae565b9650506040610fc78a828b01610d0f565b9550506060610fd88a828b01610d42565b9450506080610fe98a828b01610d42565b93505060a088013567ffffffffffffffff81111561100a57611009610c64565b5b6110168a828b01610d62565b925092505092959891949750929550565b5f6020828403121561103c5761103b610c60565b5b5f61104984828501610d0f565b91505092915050565b5f82825260208201905092915050565b7f6e6f74206f776e657200000000000000000000000000000000000000000000005f82015250565b5f611096600983611052565b91506110a182611062565b602082019050919050565b5f6020820190508181035f8301526110c38161108a565b9050919050565b7f7a65726f206164647265737300000000000000000000000000000000000000005f82015250565b5f6110fe600c83611052565b9150611109826110ca565b602082019050919050565b5f6020820190508181035f83015261112b816110f2565b9050919050565b7f706c6174666f726d206e6f7420736574000000000000000000000000000000005f82015250565b5f611166601083611052565b915061117182611132565b602082019050919050565b5f6020820190508181035f8301526111938161115a565b9050919050565b6111a381610d23565b82525050565b5f6060820190506111bc5f830186610f55565b6111c96020830185610f55565b6111d6604083018461119a565b949350505050565b5f81519050919050565b5f81905092915050565b8281835e5f83830152505050565b5f61120a826111de565b61121481856111e8565b93506112248185602086016111f2565b80840191505092915050565b5f61123b8284611200565b915081905092915050565b5f8115159050919050565b61125a81611246565b8114611264575f5ffd5b50565b5f8151905061127581611251565b92915050565b5f602082840312156112905761128f610c60565b5b5f61129d84828501611267565b91505092915050565b7f7472616e73666572206661696c656400000000000000000000000000000000005f82015250565b5f6112da600f83611052565b91506112e5826112a6565b602082019050919050565b5f6020820190508181035f830152611307816112ce565b9050919050565b5f82825260208201905092915050565b828183375f83830152505050565b5f601f19601f8301169050919050565b5f611347838561130e565b935061135483858461131e565b61135d8361132c565b840190509392505050565b5f60608201905061137b5f830187610f55565b611388602083018661119a565b818103604083015261139b81848661133c565b905095945050505050565b7f70756c6c206661696c65640000000000000000000000000000000000000000005f82015250565b5f6113da600b83611052565b91506113e5826113a6565b602082019050919050565b5f6020820190508181035f830152611407816113ce565b9050919050565b5f6040820190506114215f830185610f55565b61142e602083018461119a565b9392505050565b7f617070726f7665206661696c65640000000000000000000000000000000000005f82015250565b5f611469600e83611052565b915061147482611435565b602082019050919050565b5f6020820190508181035f8301526114968161145d565b9050919050565b5f6114a883856111e8565b93506114b583858461131e565b82840190509392505050565b5f6114cd82848661149d565b91508190509392505050565b7f6c6966692063616c6c206661696c6564000000000000000000000000000000005f82015250565b5f61150d601083611052565b9150611518826114d9565b602082019050919050565b5f6020820190508181035f83015261153a81611501565b9050919050565b50565b5f61154f5f8361130e565b915061155a82611541565b5f82019050919050565b5f60a0820190506115775f830187610f55565b6115846020830186610f55565b611591604083018561119a565b61159e606083018461119a565b81810360808301526115af81611544565b90509594505050505056fea2646970667358221220e77947424c05947d34254f569261e78a2613c9f8bd0b116cfde235d9f3e5684f64736f6c634300081e0033","linkReferences":{}},"methodIdentifiers":{"bridgeViaLiFi(address,address,uint256,address,bytes,bytes)":"6b0d2ea2","owner()":"8da5cb5b","platformWallets(uint8)":"fa8c7762","setOwner(address)":"13af4035","setPlatformWallet(uint8,address)":"6767041c","transferERC1155(address,address,uint8,uint256,uint256,bytes)":"ee6097f0","transferERC20(address,address,uint8,uint256,bytes)":"5d4ffa65"},"id":0}